:020000040800F2
:10000000000003205D0600081127000813270008E0
:10001000152700081727000819270008000000000E
:100020000000000000000000000000002183000824
:100030001B27000800000000B1830008417C000875
:10004000AD060008AD060008AD060008AD060008C4
:10005000AD060008AD060008AD060008AD060008B4
:10006000AD060008AD060008AD060008AD060008A4
:10007000AD060008AD060008AD060008AD06000894
:10008000AD060008AD060008AD060008AD06000884
:10009000AD060008AD060008AD060008AD06000874
:1000A000AD060008AD060008AD060008AD06000864
:1000B000AD060008AD060008AD060008AD06000854
:1000C000AD060008AD060008AD060008AD06000844
:1000D000AD060008AD060008AD060008AD06000834
:1000E000AD060008AD060008AD060008AD06000824
:1000F000AD060008AD060008AD060008AD06000814
:10010000AD060008AD060008AD060008AD06000803
:10011000AD060008AD0600081D270008AD06000862
:10012000AD060008AD060008AD060008AD060008E3
:10013000AD060008AD060008AD060008AD060008D3
:10014000AD060008AD060008AD060008AD060008C3
:10015000AD060008AD060008AD060008AD060008B3
:10016000AD060008AD060008AD060008AD060008A3
:10017000AD060008AD060008AD060008000000004E
:10018000AD060008AD060008AD060008AD06000883
:10019000AD060008AD060008AD060008AD06000873
:0C01A00029270008AD06000835270008DC
:1001B00010B5054C237833B9044B13B10448AFF3A1
:1001C00000800123237010BD800300200000000088
:1001D000644C020808B5034B1BB103490348AFF355
:1001E000008008BD0000000084030020644C020869
:1001F00001F0FF01102A2BDB10F0070F08D010F8D8
:10020000013B013A8B422DD010F0070F42B3F6D1DB
:10021000F0B441EA012141EA014122F007047FF0F4
:1002200000070023F0E80256083C85EA010586EA4B
:10023000010685FA47F5A3FA87F586FA47F6A5FA87
:1002400087F68EB9EED1F0BC01F0FF0102F0070293
:1002500032B110F8013B013A83EA010313B1F8D13E
:100260000020704701387047002D06BF354603381F
:10027000073815F0010F07D1013015F4807F02BF58
:10028000013015F4C03F0130F0BC0138704700BFA9
:100290007BB972B90029BEBF00204FF0004106E0D3
:1002A00008BF00281CBF6FF000414FF0FF3000F086
:1002B000D3B9ADF1080C6DE904CE002909DB002BA0
:1002C0001ADB00F04DF8DDF804E0DDE9022304B0AC
:1002D0007047404261EB4101002B1BDB00F040F80E
:1002E000DDF804E0DDE9022304B0404261EB4101A6
:1002F000524263EB43037047524263EB430300F007
:100300002FF8DDF804E0DDE9022304B0404261EBA0
:1003100041017047524263EB430300F021F8DDF8DE
:1003200004E0DDE9022304B0524263EB430370476B
:1003300053B94AB9002908BF00281CBF4FF0FF314C
:100340004FF0FF3000F088B9ADF1080C6DE904CE34
:1003500000F006F8DDF804E0DDE9022304B07047A0
:100360002DE9F047089D8E4604468846002B4AD169
:100370008A42174662D9B2FA82F64EB1C6F120031C
:1003800001FA06F820FA03F3B74043EA0808B4403C
:100390004FEA174E1FFA87FCB8FBFEF1230C0EFB49
:1003A000118843EA084301FB0CF29A4209D9FB1871
:1003B00001F1FF3080F0EA809A4240F2E780023992
:1003C0003B449A1AA3B2B2FBFEF00EFB102243EAA2
:1003D000024300FB0CFC9C4509D9FB1800F1FF32DD
:1003E00080F0D6809C4540F2D3803B44023840EAFE
:1003F0000140A3EB0C0300211DB1F3400022C5E92D
:100400000032BDE8F0878B4205D90DB1C5E9000186
:1004100000210846F5E7B3FA83F1002946D1734578
:1004200002D3824200F20581841A6EEB030201209E
:100430009046002DE5D0C5E90048E2E7002A00F02B
:100440009080B2FA82F6002E40F0A4808A1A030C43
:100450004FEA174E80B2BCB20121B2FBFEFC0EFB8C
:100460001C2243EA024304FB0CF29A4207D9FB1810
:100470000CF1FF3802D29A4200F2E080C4469B1A87
:10048000B3FBFEF20EFB123340EA034302FB04F41B
:100490009C4207D9FB1802F1FF3002D29C4200F2C5
:1004A000CA8002461B1B42EA0C40A5E7C1F12006A8
:1004B0008B4022FA06F71F430EFA01F420FA06F3E6
:1004C0002EFA06FE4FEA1749234300FA01F81FFAF5
:1004D00087FCBEFBF9F01C0C09FB10EE44EA0E444D
:1004E00000FB0CFEA64502FA01F209D93C1900F105
:1004F000FF3A80F09C80A64540F2998002383C4447
:10050000A4EB0E041FFA83FEB4FBF9F309FB1344BA
:100510004EEA044403FB0CFCA44508D93C1903F142
:10052000FF3E80F08280A4457FD9023B3C4443EAF1
:100530000040A4EB0C04A0FB02EC64457346E146CA
:1005400062D35FD05DB1B8EB030264EB090404FA37
:1005500006F622FA01F31E43CC40C5E900640021EF
:100560004FE7B1FBF2FC010C41EA0E4180B240EAD8
:1005700001423B4638463C46B846BE462026B1FBC3
:10058000F7F1A2EB080241EA0C4166E7014618E7E1
:1005900010462CE7C6F120022EFA02F3B740B14014
:1005A00020FA02F24FEA174E0A43B3FBFEF8BCB240
:1005B0000EFB1833110C41EA034108FB04F9B0406B
:1005C00089454FEA104380B23ED9791808F1FF3CC3
:1005D00001D289451FD8A1EB0901B1FBFEF909FB46
:1005E00004F80EFB191192B242EA0142424529D2A7
:1005F000BA1809F1FF31C4D24245C2D2A9F10201B1
:100600003A44BEE7F0459DD2BEEB02036CEB070C0B
:100610000138E14696E7A7EB09094944A8F1020C25
:10062000B1FBFEF909FB04F8DBE773467FE75046B0
:1006300066E70846FDE63B44023A33E7ACF1020CBC
:100640003B441CE749469CE7A1EB0901C446B1FBCA
:10065000FEF909FB04F8C4E7704700BFDFF834D0A7
:10066000002103E00C4B5B58435004310B480C4B0A
:1006700042189A42F6D30B4A02E0002342F8043BA8
:10068000094B9A42F9D305F05DF823F07DFD01F0A6
:10069000DDFA704700000320ECBD060800000020D2
:1006A0006401002080030020A0460120FEE770477F
:1006B00008B500F0A5FDBDE8084000F027BD00F03A
:1006C000A1BD704710B50421044622F005FB204669
:1006D00010BD000038B50C4B0C4C18800C4B822020
:1006E00019806368984740F6110398420AD1094D72
:1006F00023682C60822098472B688220DB6898470B
:10070000002038BD0120FCE7A60300204C0000209B
:10071000A4030020A80300204FF4A071F020FFF7ED
:10072000D9BF0000F7B52F4D2B6804461B69822006
:1007300098472080002844D02B680DF106025B69A1
:1007400001A982209847BDF80620A2F5B47292B2A2
:100750000A2A38D90B23B2FBF3F2234B1B889A42A7
:1007600001D9013B9AB2BDF80430204840F6B831B7
:100770008B422AD8C3F571630E3301689BB20F25F3
:10078000B3FBF5F31A4D2D88AB4284BF05F1FF355D
:10079000ABB28B421D468EB220D99B1B99B2154E2F
:1007A0003768BBB2BA428CBFD31A9B1A9BB21944AA
:1007B0000529C8BF05600368C8BF3260638033681D
:1007C000A38003B0F0BD0022CDE7C3F56D6308330D
:1007D0009BB20E2B0168D2D800252B46C91A89B2CC
:1007E000DDE700BFA8030020A4030020A003002031
:1007F000A60300209C03002037B568460D4614462A
:10080000FFF790FFBDF8000040B1BDF802302B604B
:10081000BDF80430C3F5A0732360012003B030BDE0
:10082000032821D8DFE800F0020B12190F4B1A68D9
:10083000B2FA82F2520904210D4805F017BA0B4BA7
:100840005A68B2FA82F252090821F5E7074B9A6812
:10085000B2FA82F252091021EEE7044BDA68B2FADA
:1008600082F252092021E7E7704700BFAC03002065
:1008700000100240032821D8DFE800F0020B121913
:100880000F4B1A68003A18BF012204210D4805F0E9
:10089000EDB90B4B5A68003A18BF01220821F5E761
:1008A000074B9A68003A18BF01221021EEE7044B6B
:1008B000DA68003A18BF01222021E7E7704700BF3D
:1008C000AC0300200010024003280DD8DFE800F040
:1008D0000206080A0421054805F0CDB90821FAE707
:1008E0001021F8E72021F6E7704700BF0010024012
:1008F00008B5032811D8DFE800F0020A0C0E042125
:10090000074805F0ADF9431E5842584108BD08217B
:10091000F6E71021F4E72021F2E70020F3E700BF1B
:100920000010024070B5084D00240126E0B2FFF728
:10093000DFFF18B12B68012B18BF2E600134052C86
:1009400005F10405F2D170BDAC030020012380F84D
:10095000781080F87930704700207047034B41646D
:10096000003918BF01211970704700BF5F3901209D
:1009700000207047836B0BB10846184770474FF64D
:10098000FF707047406803689B691847704770475D
:100990007047000010B5044600F042FD236803498B
:1009A000D3F88C302046BDE810401847000000D036
:1009B00008B503680446D3F880309847236820467A
:1009C0009B6F984700F0ECF8236820461B6F984710
:1009D000292001F0BDFB00F0E3F8236820461B6FDF
:1009E0009847F8E710B504460AF052FA2368204603
:1009F000D3F8AC30BDE81040184700F0F5BC00F06B
:100A0000F9BC00F02BBD00F0CBBC00F03BBD00F00A
:100A100043BD00F0CFBC09F0A7BC10B57C21044653
:100A200022F05AF9204610BD10B590F8341090F815
:100A300078400C4B8C421A7809D03AB90A4A0B49D3
:100A40001488088810800C8001221A7010BD002ABA
:100A5000FCD0054A05491488088810800C800022C3
:100A6000F3E700BF583901205439012056390120DD
:100A700070B50D46194635B9094B0A4A0A4840F285
:100A8000D22123F065F8C0E90F52084B003A18BF95
:100A900001221A700368BDE87040D3F88C30184703
:100AA000D44C02080C4D02085A4D02085E39012050
:100AB00008B5094B1B888B4203D8084B1B8893420F
:100AC00005D9074B074A08489E2123F041F8074BF8
:100AD0001980074B1A8008BD54390120563901206E
:100AE0009F4D0208024E02085A4D02085A39012051
:100AF0005C390120034690F87A0018B15868036801
:100B00001B68184770470000012108B500220846FD
:100B100007F020F90A4B186028B90A4B0A4A282125
:100B20000A4823F015F800220421012007F0B1F94A
:100B3000074B186018B9074B034A2C21F0E708BD92
:100B4000C0030020454E02088E4E0208BD4E02082A
:100B5000BC030020154F0208024B4FF0FF3118680C
:100B600007F042B9C0030020014B186807F068B9CC
:100B7000C0030020024B0021186807F035B900BF00
:100B8000C0030020FFF7F0BF0348044900680023BA
:100B90001A4607F0B9B900BFBC03002004000020CA
:100BA00013B5084C00231A4601A9206807F0DDF9A7
:100BB00020684FF0FF33002201A907F0D6F902B0F8
:100BC00010BD00BFBC03002003685B6C1847012008
:100BD000704703689B6A1847FEE740F2EF307047A2
:100BE000054B0360054B4FF08062C3F88820BFF3CC
:100BF0004F8FBFF36F8F7047445B020800E100E046
:100C000010B504464FF45A61FFF7EAFF204622F080
:100C100063F8204610BD000082B0002301930E4B04
:100C20001A6B42F400021A631A6B02F4000201927A
:100C3000019A1A6942F400021A611A6922F4000248
:100C40001A61064B064A1A61064A5A61064B4FF072
:100C500080629A6002B07047003802404C2A00203F
:100C6000B90E0008D90B000800E100E008B50A2819
:100C700009D8DFE800F006100E0808080810101068
:100C80001000022008BD054B054A0648902122F0BD
:100C90005FFF0020F6E70120F4E700BF574F02088E
:100CA000724F0208BD4F020838B50C46887FFFF727
:100CB000DDFFA58AE28A164B2169586342EA0542A4
:100CC0005A64628BD963521B1A642568082D0ED1B1
:100CD0009A611A615862207F0E4A42EA0062DA6124
:100CE000E2681A620C4A5961D9601A6038BD002264
:100CF000D8611A61E1680A0A480902F4784200F4EE
:100D0000FC600243C1F3C4010A439A63034AECE75F
:100D100000B002400900010001230200012303008A
:100D200008B50B280BD8DFE800F00612100A0A0AF3
:100D30000A0808080808022008BD0520FCE7054B42
:100D4000054A06486F2122F003FF0020F4E7012046
:100D5000F2E700BF574F020813500208BD4F0208C8
:100D60002DE9F04191F81D800C464046FFF7D8FF71
:100D7000A77F05463846FFF7D3FF06463846FFF7FC
:100D800075FFA18A628B444B521A1A649A61228BB6
:100D9000521A1A61E28A586342EA01425A6421698E
:100DA0006268D963DA602068802828D0227F0FD853
:100DB000202867D0402865D004281AD0364B45EA51
:100DC000026545F40035B845DD6161D0334A44E041
:100DD000B0F5807F04D0B0F5007FEFD1304800E05F
:100DE000304840EA0262DA61E2681A625E62596182
:100DF00032E045EA026242F40032DA61F6E7A068C6
:100E0000021DDA62227F45EA026545F40035DD61A4
:100E10005E625961017841B1012921D0224B234AF8
:100E200023484FF48D7122F093FEDA69418822F451
:100E30007F42013922F0100242EA0122DA610121E7
:100E4000154BDA6942F02002DA61DA699206FCD4C5
:100E500010229A600029B9D0164A1A60BDE8F081C4
:100E6000B2F1FF01DA69408822F47F4200F1FF30DD
:100E700022F0100242EA002242F0100218BF0121C3
:100E8000DA61DDE745EA0262034B42F40032B4E77F
:100E900042F20132E1E700BF00B00240012301004D
:100EA000090002000A0002005D50020877500208A3
:100EB000BD4F020801230200024B1B6858680368FB
:100EC0005B6918476039012070B5044625460A4B16
:100ED0000C30002660602672667245F8203B602266
:100EE00029460AF02DF904F55A63EE6024359D4237
:100EF000FBD1204670BD00BF445B0208034B1A685B
:100F0000D207FCD423229A60704700BF00B0024091
:100F10007047000030B50F4C2568ED07FCD4232541
:100F20000904A56041F001010225FF2B656361649E
:100F3000E0630AD00849656241EA0363E361074B55
:100F400022626061E060236030BDE561039BA363C2
:100F5000034BF8E700B00240090001000100020065
:100F60000100030030B50E4C2568ED07FCD42325A5
:100F70001204A56042F001020225FF2B6563626442
:100F8000E063E16008D01B0643F00213E361054B08
:100F900065626061236030BD034BE3610123F9E7C3
:100FA00000B0024001000200020002FF30B50B4C0D
:100FB0002568ED07FCD4232512041B06A56043F425
:100FC0000033022542F0010265636264E063E16080
:100FD000E361034B65626061236030BD00B0024095
:100FE00001000200012070474020704700EB811093
:100FF0000830704700EB81100830704701207047BF
:1010000041F2E820704741F2E82303FB0100083079
:10101000704741F2E82303FB0100083070470120CC
:1010200070471020704700EB01100830704700EB4C
:10103000011008307047084602F00EB810B5034B97
:101040000360044608F0E7FE204610BDFC5B020882
:1010500010B50446FFF7F2FF2046482121F03CFE80
:10106000204610BD10B5034B0360044608F0D3FEC4
:10107000204610BDC85B020810B50446FFF7F2FF1A
:10108000204641F2F02121F027FE204610BD00004D
:1010900010B5034B0360044608F0BDFE204610BDAA
:1010A000945B020810B50446FFF7F2FF20461821B2
:1010B00021F012FE204610BD10B5094B0360044616
:1010C00000F598501C30FFF7B9FF04F12C00FFF732
:1010D000C9FF04F11400FFF7DBFF204610BD00BF7D
:1010E000305C020808B50248FFF7E6FF08BD00BF04
:1010F0009412002010B50446FFF7DEFF204641F2AF
:10110000145121F0E9FD204610BD00002DE9F34106
:1011100001F08EFB054601F08FFB002401462346BB
:1011200028462246009412F07BFD274B274A1A607E
:10113000204603F0F1F9264D264B274A27489A60AE
:1011400012F0D6FC2B68BFF35B8FDB0736D4284642
:1011500021F0C4FD90B3224C224F234B236007F1B2
:101160009C0604F1140004F12C086060C4F80880A7
:10117000E760266108F050FE1C4B6361404608F0B2
:101180004BFE1B4BE362384608F046FE04F58053E5
:1011900003F55970174AC3F81C2303F07DFD22465E
:1011A00007F14801304603F0CFFA304601F054FF12
:1011B000114822F0EBFC284621F09CFD0F4802B0BC
:1011C000BDE8F041FFF7E6BBC43901204004002030
:1011D0009012002060040020440400200800002039
:1011E00094120020B0250020305C0208945B0208B5
:1011F000C85B0208FC5B0208E5100008C40300207D
:10120000704700000148FFF7D3BB00BFC4030020B4
:1012100070B5244E244C254D254B23603046FFF7F6
:1012200053FE284617F002FE224810F065FA224BC2
:101230002248DC6000224FF48071C3E91212204979
:101240001A86C3E91A121F4999671F4983F8582063
:101250000B60F02101801D485A6601801C4883F80C
:1012600070204FF4A071C3E90422C3E90622C3E948
:101270000822C3E90A22C3E90E22C3E91022C3E906
:101280001422C3E917225A67C3E901650180114896
:10129000018011490A70012283F834200F4A1A6034
:1012A00070BD00BFEC0400208C1200206004002000
:1012B000C44C020844040020C40300205439012017
:1012C0000100000100000101603901205A390120AC
:1012D000563901205C390120583901206C5A020826
:1012E0000148FFF77DBC00BFEC04002000207047E0
:1012F00081807047C180704701817047418170478C
:101300007047704770477047704710B4C4880368CF
:10131000121B84885B6D091B12B25DF8044B09B285
:1013200018474FF6FF7383814FF0FF330362136852
:10133000C36110607047002070478B888380012054
:101340007047704780F82610704790F82600704765
:1013500010B50022B1F90840B1F90A1002804280AC
:101360008480C18010BD0022028042808280C280C1
:1013700070470177704780ED080A704780F82410A5
:10138000704780F8251070470120704798307047EB
:101390008C3070478430704770477047704700004A
:1013A000034B902283F85A2383F85823704700BFD9
:1013B00000E100E0094A0A49D3680A48C3F30A0376
:1013C000013B9BB20B801169C1F30A010139018015
:1013D0001364536B43F0010353637047006801408B
:1013E000AA270020A8270020014BD3F8AC007047A3
:1013F00000680140024B0122C3F8AC105A627047EA
:101400000068014010B52C21044621F065FC2046FF
:1014100010BD10B5BC21044621F05EFC204610BD75
:1014200070B5044608F0F5FF23685D6E0FF038F8DC
:1014300001462046A8472368054AD3F8885020462D
:10144000AC460023BDE87040A2F51631604700BFEE
:1014500000B004D008F0C4BF08F0CEBF08F08ABFC7
:1014600009F0EBB890F8252012B103685B691847C2
:10147000704790F825201AB190F8242002B1186026
:1014800070470000034B4FF080629A604FF080720B
:101490009A60704700E100E0084B4FF08062C3F8AB
:1014A0008820BFF34F8FBFF36F8F4FF08072C3F868
:1014B0008820BFF34F8FBFF36F8F704700E100E0CC
:1014C00070B50023124E8380124B0360336893F88B
:1014D000582005460AB1D86C00B998680368DB6AE1
:1014E00098473368B0FA80F4D86C640930B1036867
:1014F000DB6A9847002808BF44F001042CB9064B6A
:10150000064A07482C2122F023FB284670BD00BF65
:1015100060390120445C0208B550020813510208EA
:101520004C51020870B5244E3568BFF35B8F15F03F
:1015300001053FD1304621F0D1FB00283AD01F4CA5
:101540001F4B256104F13400C4E90035C4E902559C
:10155000E584A562A58510F02EFB04F158000BF080
:10156000E9F9184BA3652046174B40F8843BFFF779
:10157000A7FF164BC4F884302433C4F88C3064239E
:10158000C4E928350023C4F8AC30C4F8B030C4F83E
:10159000B430C4F8B8300E480E4BC4F89050C4F8BC
:1015A0009C50C4F8A850C4F8983022F0EFFA3046A6
:1015B00021F0A0FB014870BDAC270020B02700201F
:1015C00044670208645C0208DC5C0208F8660208F2
:1015D0009D130008D866020810B5144C236823B385
:1015E000134B144A1B6C11888B4213D1124B198870
:1015F00005F044F9226892F86A30013382F86A30C3
:10160000FFF7C2FA206809F043FCBDE81040002053
:10161000FFF706B905F032F9206803681B6A98479E
:10162000BDE810400020FFF725B910BD603901204A
:1016300000680140AA270020A827002007B5064B14
:10164000ADF806001B68054801220DF1060105F002
:10165000B5FE03B05DF804FB0C000020F828002064
:101660007047000038B50446002800F09B80056CE8
:1016700025B9FFF7F5FF656484F83C50236CDB0661
:1016800000F18E80236C23F4885323F0020343F08F
:1016900002032364444B5A6822F440325A605A6869
:1016A00061680A435A60236821695A6822F480728B
:1016B0005A605A6842EA01225A605A68A16822F0C8
:1016C00040725A605A680A435A609A68E16822F484
:1016D00000629A609A680A439A603449A26A8A4210
:1016E00052D0996821F07061996099680A439A60B4
:1016F0009A68E16A22F040529A609A680A439A60B6
:101700009A6822F002029A609A68217E42EA4102B7
:101710009A6094F82020002A3ED05A68616A42F408
:1017200000625A605A6822F460425A605A6801396D
:1017300042EA41325A60DA6AE16922F47002DA62FE
:10174000DA6A013942EA0152DA629A6822F40072D6
:101750009A609A6894F8301042EA41229A609A6836
:10176000616922F480629A609A68002042EA8122CC
:101770009A606064236C23F0030343F00103236445
:10178000002384F83C3038BD9A6822F070629A6079
:101790009A6822F04052B2E75A6822F40062C9E720
:1017A0000120EDE70120EEE7002301400100000FDA
:1017B00082B00023019390F83C30012B69D00123C3
:1017C00080F83C3003689A68D2070BD59A68D10735
:1017D0001AD4036C43F010030364436C43F0010319
:1017E00043644CE09A682C4942F001029A602B4A0B
:1017F0001268B2FBF1F202EB42020192019A002A56
:10180000E4D0019A013AF8E7026C22F4E06222F097
:10181000010242F4807202645A68520541BF026CB0
:1018200022F4405242F480520264026C12F480525C
:101830001CBF426C22F006024264002280F83C2069
:101840006FF022021A60164A516811F01F0F1549F5
:101850001CD18B4207D001F580718B420CD15268AC
:1018600012F01F0F0BD19A6812F0405F07D19A68EF
:1018700042F080429A6002E00B498B4202D0002085
:1018800002B07047526812F0100FEBE78B42F6D1AE
:10189000E9E70220F4E700BF40420F007400002097
:1018A00000230140002001400022014003689A68A3
:1018B000520570B504460D460BD59B68DE0508D56C
:1018C000036C43F020030364002380F83C300120C4
:1018D00070BD03F06BFF064623681A6891070CD5AC
:1018E0006FF012021A60226C42F4007222649A684D
:1018F00012F0405F17D00020EAE7681CEDD065B910
:1019000023681B6813F00203E6D1226C84F83C3094
:1019100042F0040222640320DAE703F047FF801B51
:10192000A842EDD8D8E7227E002AE4D1DA6A12F480
:10193000700F02D09B685A05DDD4236C23F48073AA
:101940002364236CDB04D6D4236C43F001032364AB
:10195000D1E70000F7B50023019390F83C30012B4C
:10196000054600F08680012380F83C3008682B682B
:101970008E68092884B233D904EB4402DF681E3A2A
:101980004FF0070C0CFA02FC27EA0C07DF60DF6857
:1019900006FA02F23A43DA604968062901EB81024D
:1019A0002DD8596B053A1F26964021EA0601596346
:1019B000596B04FA02F20A435A632F4A93420AD13E
:1019C000122837D12D4B5A6822F400025A605A6807
:1019D00042F480025A60002085F83C0003B0F0BD5C
:1019E0001A6900EB400C072707FA0CF722EA0702F6
:1019F0001A611A6906FA0CF616431E61CCE70C2927
:101A00004FF01F010BD81E6B233A914026EA0101CB
:101A10001963196B04FA02F20A431A63CDE7DE6A0E
:101A2000413A914026EA0101D962D96A94400C43B7
:101A3000DC62C2E7124B984201D01128CBD10F4B88
:101A40005A6822F480025A605A6842F400025A60CE
:101A50000B4B9842BFD10B4B0B4A1B68B3FBF2F305
:101A60000A2253430193019B002BB4D0019B013BFD
:101A7000F8E70220B2E700BF002001400023014048
:101A8000120000107400002040420F0030B50D4DD0
:101A900085B001236946009000242846CDE9013332
:101AA0000394FFF757FF2846FFF782FE0A212846D6
:101AB000FFF7FCFE18B92B68D86C05B030BD204686
:101AC000FBE700BF702800202DE9F3470023012425
:101AD000354FDFF8D8908DF80730A246A0460B208E
:101AE000FFF7D4FF06460E20FFF7D0FF0546BAF1F8
:101AF000000F3BD0B6F57A7F32D204238DF8073041
:101B0000002338681A460DF1070106F0FDF94FF081
:101B1000000A002C3DD0B5F57A7F33D202238DF830
:101B20000730002338681A460DF1070106F0ECF97A
:101B300000240121484604F093F801280CD1C82064
:101B400006F0FCF805238DF80730002338681A46A4
:101B50000DF1070106F0D8F90A2006F0EFF8BEE70C
:101B600040F6B8339E42D4D90323C7E76FF4966298
:101B700040F23E6A164456458CBF4FF0000A4FF0C3
:101B8000010AC6E740F6B8339D42D2D98DF80780E6
:101B9000C7E76FF4966340F23E641D44A5428CBFD4
:101BA00000240124C5E700BFB8280020000002403F
:101BB00030B595B0102200210AA822F03CFA142278
:101BC000002103A822F037FA00241E4B01941A6C5E
:101BD00042F080521A641B6C03F080530193019B06
:101BE000194B02941A6842F440421A601B6803F4CD
:101BF000404302930122029B4FF48033CDE9082336
:101C000002254FF480030821CDE90E534FF4B4733D
:101C1000CDE9101308A804231393129504F086FE4F
:101C200004F04AFE0F23CDE903354FF4A0504FF4E2
:101C30008053CDE90603052103A8059405F052F869
:101C400015B030BD00380240007000402DE98048DA
:101C50009DB00024C54DC64E03F082FDFFF7A8FFDE
:101C6000142200210FA822F0E6F902942B6BC14840
:101C700043F010032B632B6B03F010030293029BC2
:101C800003942B6B43F020032B632B6B03F0200397
:101C90000393039B04942B6B43F080032B632B6B08
:101CA00003F080030493049B05942B6B43F004031F
:101CB0002B632B6B03F004030593059B06942B6B9E
:101CC00043F001032B632B6B03F001030693069B88
:101CD00007942B6B43F002032B632B6B03F002037F
:101CE0000793079B08942B6B43F040032B632B6BEC
:101CF00003F040030893089B09942B6B43F00803FF
:101D00002B632B6B03F00803099322463C21099BAC
:101D100003F0ACFF98482246042103F0A7FF2246B7
:101D200096484FF4405103F0A1FF3C2301270DEBEF
:101D300003014FF003098F4811944FF002084FF050
:101D4000040ACDE90F37CDF8489003F0A5FE8A4884
:101D500011940FA9CDE90FA7CDF8488003F09CFEA0
:101D60000FA94FF440528548CDE90F27CDE911481E
:101D700003F092FE8248834A026003F083FD824BA7
:101D8000824A3462C6E9003230464FF48042C6E9E6
:101D90000424C6E90244C6E9064404F075F910219A
:101DA000304604F0B9FB2146304604F0D4FB7848B5
:101DB000784984624FF482720A23C0E900124FF41A
:101DC00000761822C362C0E90662C0E90244724E7E
:101DD000C0E90444C0E9084405F094FA6F4ACDF81C
:101DE0003C804FF0100CC6E900274022C6E904C22F
:101DF0004FF4C072C6E906244FF40062C6E9082415
:101E00004FF40052B2620FA9072230464FF0080B80
:101E1000C6E9024ACDE9102ACDE91229CDE9148894
:101E200005F054F94FF6FF720BA93046CDE90CB717
:101E30000A940B970E9405F069F9384603F0BCFC40
:101E40004FF6FF720BA93046CDE90B8BCDE90D742F
:101E500005F05CF94FF6FF720BA93046CDE90B9BFC
:101E6000CDE90DA405F052F94FF40C720A920A9BC9
:101E70000E934FF6FF720BA93046CDE90BAB0D97D1
:101E800005F044F940F26A51304605F05DF934221C
:101E900021460FA822F0CFF8414E424B3461C6E9EB
:101EA00000340923C6E905371D2340F20D1EC6E99B
:101EB000073940F24313C6E909E3304640F24713BD
:101EC00040F2171BC6E90BB3C6E90244B48686F894
:101ED000364004F0DBFBFF21F022CDE914144FF46F
:101EE000806005214FF4A073CDE91601CDE91024DF
:101EF0000FA9CDE91842304622462B4E1A93CDE960
:101F000012380F94ADF86C408DF86E4004F089FCE7
:101F1000264B33601B6898473368254EDB6898472B
:101F2000244B3046C6E90034C6E90284C6E90A48B3
:101F3000C6E90C4403F0B6FC3946304603F068FDB0
:101F4000FEF7B6FBFEF7B3FBCDE911440194139401
:101F50006B6C094843F480736B646B6C03F480739F
:101F60000193019B0B942B6B26E000BF00380240CD
:101F7000F82900200010024000080240000C024036
:101F80008C2A002000300240005C0040A086010046
:101F9000F828002000500140C4280020400100A083
:101FA00050290020006801406C2800201400002007
:101FB0004C2A002000B0024043EA0A032B632B6B3B
:101FC0001C4D03EA0A030B930FA90B9B1223CDE9C7
:101FD0000F3903F061FD18484FF48033C0E9005316
:101FE000164B836284600461047680F82040C462EA
:101FF000C460C76180F830404761FFF733FB05F0EC
:102000002DFE0F4A39460A2005F043FF0D4B0E4ABC
:10201000186021460D4805F04DFE0D4B0D4A186025
:1020200021460D4805F046FE0C4B186005F028FED1
:10203000FEE700BF00200140702800200100000FD3
:10204000205D0208B82800205C5D0208C91A00085B
:10205000C0280020385D0208BF060008BC28002008
:10206000704770477FB5094B8DF817201B680293A6
:102070000DF117020123009201930A46014604481C
:1020800004F0AAF807B05DF804FB00BF10000020C0
:10209000F82900207FB500238DF81730084B1B6806
:1020A00002930A4601230DF11701009101930146A5
:1020B000044804F021F99DF8170007B05DF804FB0F
:1020C00010000020F82900201FB5084C2468009259
:1020D000CDE901340A4601230146054804F00CF914
:1020E000003818BF012004B010BD00BF1000002050
:1020F000F829002003F060BB10B5064C00222046F2
:10210000042103F0B3FD20460122BDE81040042164
:1021100003F0ACBD0008024038B50B4D0446012267
:102120000A484FF4005103F0A1FD00220421284683
:1021300003F09CFD2046FFF781FA28460122BDE806
:102140003840042103F092BD00080240000C024018
:1021500038B50B4D044600220A484FF4005103F0F5
:1021600085FD00220421284603F080FD2046FFF76C
:1021700065FA28460122BDE83840042103F076BD07
:1021800000080240000C0240F7B5144E144F0546FB
:102190000C4630460022042103F068FD00224FF473
:1021A0000051384603F062FD2846FFF747FA0D4B11
:1021B0000D481B68224601A905F0ACFA38460122F9
:1021C0004FF40051019C03F051FD304601220421DF
:1021D00003F04CFD204603B0F0BD00BF00080240F4
:1021E000000C02400C000020F828002003F0E4BAA4
:1021F0000268034B9A4201D103F0CCBA704700BF8A
:10220000001000407047000082B00E4B0022009288
:10221000596C41F480415964596C01F4804100913A
:1022200000990192196C41F0805119641B6C03F004
:1022300080530193019B0F216FF0010002B003F066
:10224000E1BA00BF003802400268094B9A4282B0EE
:102250000BD100230193074B1A6B42F480521A638F
:102260001B6B03F480530193019B02B0704700BFC6
:10227000003002400038024007B50F4B02689A4216
:1022800016D10022A3F5F0430192196B41F400012D
:1022900019631B6B03F40003019305215A20019B72
:1022A00003F0B0FA5A2003B05DF804EB03F0DCBA97
:1022B00003B05DF804FB00BF00B002402DE9F0431D
:1022C000044689B01422002103A821F0B4FE22683C
:1022D000244B9A4243D1244C244800250095236B7B
:1022E00043F004032363236B03F004030093009B78
:1022F0000195236B43F001032363236B03F0010378
:102300000193019B4FF012094FF400734FF0010845
:102310000327042603A9CDE90339CDE905870796EC
:1023200003F0BAFB4FF480731148079603A9CDE977
:102330000339CDE9058703F0AFFB0295236C43F425
:1023400000032364236C03F400030293029B236ABB
:1023500043F400032362236A23F40003236209B0D9
:10236000BDE8F083005C00400038024000080240F5
:1023700000000240F0B599B004461422002107A8DD
:1023800021F059FE30220DEB0200002121F053FE16
:1023900022685E4B9A4240F0B78008230C93C0231A
:1023A0001093042312930CA84FF40033159304F0F8
:1023B00061FD08B1FFF726FF554B564800240094F5
:1023C0005A6C42F080625A645A6C02F08062009249
:1023D000009A01941A6B42F020021A631A6B02F001
:1023E00020020192019A02941A6B42F001021A63D0
:1023F0001A6B02F001020292029A03941A6B42F0E5
:1024000002021A631A6B02F002020392039A049406
:102410001A6B42F040021A631A6B02F040020492F7
:10242000049A05941A6B42F004021A631A6B02F0C4
:1024300004020592059A06941A6B42F008021A6388
:102440001B6B03F00803069302250E26069B0B96D2
:102450004FF4806307A9CDE90735CDE9094503F0BD
:102460001BFB41F658032C480B9607A9CDE907350D
:102470000927CDE9094503F00FFB032327480B97F4
:1024800007A9CDE90735CDE9094503F005FB4FF470
:10249000706322480B9607A9CDE90735CDE90945B8
:1024A00003F0FAFA4FF40C631D480B9607A9CDE927
:1024B0000735CDE9094503F0EFFAC02319480B961B
:1024C00007A9CDE90735CDE9094503F0E5FA082369
:1024D00015480B9607A9CDE90735CDE9094503F065
:1024E000DBFA4FF4A0530E480B9707A9CDE9073547
:1024F000CDE9094503F0D0FA58202246052103F022
:1025000081F9582003F0B0F919B0F0BD006801401E
:102510000038024000140240000002400004024063
:102520000018024000080240000C024010B50446AA
:1025300088B01422002103A821F07DFD2268144BED
:102540009A4223D103F56843002101915A6C114846
:1025500042F480125A645A6C02F480120192019A79
:1025600002911A6B42F020021A631B6B03F02003E6
:102570000293029B4FF4607202230321CDE90323EF
:102580000523CDE9061303A903F086FA08B010BDB0
:1025900000500140001402402DE9F04186B00023B4
:1025A00003932B4B1C68002C4FD14FF00108C3F84C
:1025B0000080284B00949A6B274842EA08029A63ED
:1025C0009B6B03EA08030093022703260C25009B5C
:1025D00001A94FF63F03CDE90137CDE9046503F0CA
:1025E0005BFA1E48059501A9CDE90187CDE90346AF
:1025F00003F052FA48F233131948059501A9CDE9C1
:102600000137CDE9034603F047FA4FF683731548C7
:10261000059501A9CDE90137CDE9034603F03CFA60
:102620004CF203731048059501A9CDE90137CDE9B6
:10263000034603F031FA60230C48059501A9CDE962
:102640000137CDE9034603F027FA06B0BDE8F08173
:10265000942A002000380240001402400008024082
:102660000018024000100240000C0240000402402A
:1026700070B588B000230293204B1A6C42F0100210
:102680001A641B6C03F010030293054601A903A80A
:10269000029B04F0D1FB069B4BBB04F0BDFB184E24
:1026A000184B336040F2E733F360174BB0FBF3F3A2
:1026B000013B7360304600233361B360B36105F0C2
:1026C000F9F9044680B9304605F0CAF8044658B90D
:1026D000362003F0C9F80F2D0DD8224629463620A2
:1026E00003F090F8094B1D60204608B070BD04F05F
:1026F00093FB4000D3E70124F6E700BF0038024017
:10270000982A00200010004040420F007C0000206A
:102710007047FEE7FEE7FEE7FEE77047014805F079
:10272000DDB800BF982A0020014804F01DB800BFA2
:1027300050290020014803F0E1B800BF4C2A0020D6
:102740000120704708B521F019FD162303604FF0F2
:10275000FF3008BD08B521F011FD16230360FEE728
:1027600070B50D4614460E46731B9C4201DC204694
:1027700070BDAFF3008006F8010BF5E770B50D46AC
:1027800014460E46731B9C4201DC204670BD16F8B1
:10279000010BAFF30080F5E74FF0FF3070474FF4C7
:1027A00000534B60002070470120704700207047A5
:1027B0000A4A116808B5034609B909491160106849
:1027C000694603448B4206D921F0D8FC0C230360F0
:1027D0004FF0FF3008BD1360FCE700BFE02A002087
:1027E000A0460120704708B5042918D8DFE801F099
:1027F00003070B0F130001F073FF006808BD01F021
:102800006FFF4068FAE701F06BFF8068F6E701F0C0
:1028100067FFC068F2E701F063FF0069EEE70020A0
:10282000ECE710B50421044620F056FA204610BD0E
:1028300000487047945D02080720704713B50024D4
:1028400051B1036801948DF8034001AA9C680DF111
:102850000303A04702B010BD0846FBE7C0897047DC
:10286000008A7047C088704780887047807A00F07F
:102870007F007047807AC0097047002070470000D1
:102880009FED010A704700BF00000000704710B5BF
:102890000821044620F020FA204610BD70477047FA
:1028A00000F598730868496803C37047704770471C
:1028B0004160704770477047064BC0F84C310023A9
:1028C000C0F8503100F5A273C0F84801C0F840319B
:1028D000704700BF292B000801230372704770471F
:1028E0007047704710B4C26841685410034601EB4A
:1028F0006200D20748BF0A599B685DF8044B48BF85
:10290000D35818470346406830B19A681AB9D86856
:1029100000F0010070470120704710B50C210446FB
:1029200020F0DAF9204610BD10B51021044620F041
:10293000D3F9204610BD10B54FF4AE71044620F017
:10294000CBF9204610BD10B54021044620F0C4F953
:10295000204610BD10B54021044620F0BDF92046A8
:1029600010BD10B50DF09CFD0368BDE81040DB6B99
:1029700018470000054B1B7801462BB1406818B181
:1029800003680C315B6E1847704700BF5F39012048
:10299000054B1B7801462BB1406818B103680C3118
:1029A0005B6E1847704700BF5F390120037A70B52E
:1029B0000546BBB940680368DB69984704463CB9E3
:1029C0006868036805F10C011B6EBDE8704018478C
:1029D000A1886B8FC91A236820461B6B09B29847E0
:1029E000A469ECE770BD037A70B50546BBB94068D1
:1029F0000368DB69984704463CB96868036805F1D9
:102A00000C011B6EBDE870401847A1886B8FC91A76
:102A1000236820461B6B09B29847A469ECE770BD98
:102A200010B50446D0F8400158B10368DB689847F8
:102A300038B1D4F8400103689B6898470023C4F874
:102A4000403110BD70B5044690F8390094F8383024
:102A50000130C0B2984284F8390005D901232372AD
:102A6000002384F8393070BDB4F93A2000210FF00A
:102A70002DFDC30706D500284FF6FF73C8BF0123FD
:102A8000184400B2238AC01AA08760680368DB6913
:102A9000984705462DB960680368BDE870405B69DA
:102AA0001847A988A38F19442B6828461B6B09B2C5
:102AB0009847AD69EEE770B5044690F8390094F890
:102AC00038300130C0B2984284F8390005D901236A
:102AD0002372002384F8393070BDB4F93A20002104
:102AE0000FF0F4FCC30706D500284FF6FF73C8BFEC
:102AF0000123184400B2238AC01AA08760680368C3
:102B0000DB69984705462DB960680368BDE87040E9
:102B10005B691847A988A38F19442B6828461B6B4B
:102B200009B29847AD69EEE72DE9F14FD0E9556A52
:102B30000746B06803681B6A9847B0F5D67F05D290
:102B4000444B454AA321454821F002F870680368C8
:102B50001B6A98470F2803D8414B3F4AA421F2E74C
:102B6000F06803681B6A98470B2803D83D4B3A4A24
:102B7000A521E8E70DF094FCDFF8F09004300DF0AB
:102B8000B4FCD9F8000010B10368DB689847D9F8A5
:102B9000000010B103681B689847DFF8D480D8F8AC
:102BA000000010B103685B699847D7F83C0110B189
:102BB00003685B689847D8F8000010B103681B6889
:102BC0009847D7F83C0110B103689B689847F068B4
:102BD000036800215B6A98474FF0000B224BC0F856
:102BE00004B0044680F808B00360B0680368594632
:102BF0005B6A9847054601F0C9FF7068036859464B
:102C00005B6A98472946064601F09EFF331DC7F8C8
:102C10003C61C9F80040C8F80050CAF800302B6881
:102C2000C6F808A02846DB68EE639847336830464C
:102C30001B689847214628460FF042FC236820462F
:102C40001B69984723685B69204601B0BDE8F04FD7
:102C5000184700BFCE5102085C52020830530208E8
:102C6000775302081A540208A45E0208A83901200A
:102C7000A43901202DE9F0411D460368BDF9187003
:102C80001B6B0446164698472368314620465B6B0B
:102C900098472368294620469B6B98472368394606
:102CA0002046DB6BBDE8F041184700002DE9F74FE7
:102CB000D0E9556A0746B06803681B6A9847B0F5C3
:102CC000D67F05D2534B544AA321544820F040FFED
:102CD000706803681B6A98470F2803D8504B4E4A08
:102CE000A421F2E7F06803681B6A98473F2803D8DD
:102CF0004C4B494AA521E8E70DF0D2FBDFF83491AF
:102D000004300DF0F2FBD9F8000010B10368DB6865
:102D10009847D9F8000010B103681B689847DFF89E
:102D20001881D8F8000010B103685B699847D7F89C
:102D30003C0110B103685B689847D8F8000010B1F7
:102D400003681B689847D7F83C0110B103689B687B
:102D50009847F068036800215B6A9847054600229F
:102D6000314B4260027245F80C3B0446284609F09C
:102D700089FE142323872D4B1B780022A287002B6A
:102D800035D101232372B068036800215B6A98473C
:102D9000054601F0FBFE7068036800215B6A9847F6
:102DA0002946064601F0D0FE331DC7F83C61C9F83C
:102DB0000040C8F80050CAF800302B68C6F808A0D8
:102DC0002846DB68EE639847336830461B689847AF
:102DD000214628460FF074FB236820461B6998475C
:102DE00023685B69204603B0BDE8F04F1847104BDD
:102DF000DFF848B0B3F900300093BBF9003011465A
:102E00002846FFF737FF284609F0B7FDBBF800302A
:102E10006387B8E7CE510208BD5402083053020858
:102E2000775302081A540208EC5E02085F39012049
:102E300056390120A8390120A43901205439012034
:102E40002DE9F74FD0E9556A0746B06803681B6A59
:102E5000984741F2E723984205D8544B544AA3219E
:102E6000544820F075FE706803681B6A98470F2865
:102E700003D8514B4E4AA421F2E7F06803681B6A5D
:102E800098473F2803D84D4B494AA521E8E70DF064
:102E900007FBDFF8389104300DF027FBD9F800006C
:102EA00010B10368DB689847D9F8000010B10368D7
:102EB0001B689847DFF81881D8F8000010B1036844
:102EC0005B699847D7F83C0110B103685B68984785
:102ED000D8F8000010B103681B689847D7F83C0188
:102EE00010B103689B689847F068036800215B6A2B
:102EF000984705460022324B4260027245F80C3B6F
:102F00000446284609F0BEFD142323872D4B1B7869
:102F10000022A287002B35D101232372B0680368F9
:102F200000215B6A9847054601F0A2FC70680368BF
:102F300000215B6A98472946064601F051FC331D83
:102F4000C7F83C61C9F80040C8F80050CAF8003022
:102F50002B68C6F808A02846DB68EE6398473368FC
:102F600030461B689847214628460FF0A9FA236887
:102F700020461B69984723685B69204603B0BDE87B
:102F8000F04F1847104BDFF84CB0B3F90030009306
:102F9000BBF9003011462846FFF76CFE284609F0C1
:102FA000ECFCBBF800305B426387B7E7CE51020808
:102FB000A455020830530208775302081A54020835
:102FC000C85E02085F39012056390120A839012066
:102FD000A439012054390120044B1B6893F8582070
:102FE0000AB1D86C00B99868704700BF60390120F9
:102FF000F8B5174604460E460DF014FB124B1C6044
:10300000124B2360124B0025C4E95135114BC4E922
:1030100053551868036801219B68C4E94F55C4E9FA
:1030200055769847284601F077FAFFF7D5FF17F055
:1030300050FDFFF7D1FF17F0C7FDFFF7CDFF17F0E9
:10304000CFFD2046F8BD00BFB4390120505E020814
:10305000385E020860390120064BC0F84C3100236D
:10306000C0F8503100F5A273C0F84801C0F84031F3
:10307000704700BF292B0008064BC0F84C310023D5
:10308000C0F8503100F5A273C0F84801C0F84031D3
:10309000704700BFAD2C0008064BC0F84C31002330
:1030A000C0F8503100F5A273C0F84801C0F84031B3
:1030B000704700BF412E0008704770477047704747
:1030C000704730B5036885B06D460181D3F8843010
:1030D000014604462846984795E807003C3484E8B2
:1030E000070005B030BD30B5036885B06D4641813D
:1030F000D3F88430014604462846984795E80700EF
:103100003C3484E8070005B030BD002202804280D4
:103110008280C280704780F83610704770B50368AF
:1031200004461B6B154698472368294620465B6E6C
:10313000BDE8704018470020704700224FF0FF3173
:10314000C0E9002182607047806C7047704770470B
:1031500030B4C26844685510034604EB6200D207DD
:1031600048BF62599B6830BC48BFD35818470346D4
:10317000406830B19A681AB9D86800F00100704709
:103180000120704710B54C2104461FF0A5FD2046D4
:1031900010BD10B5102104461FF09EFD204610BD45
:1031A00010B50446C43002F02BF804F5C67002F0E6
:1031B00027F804F5157002F023F804F5477002F0C3
:1031C0001FF804F5797002F01BF804F2AC4002F02D
:1031D00017F804F2745002F013F804F23C6002F0A5
:1031E0000FF804F2047002F00BF804F2CC7002F055
:1031F00007F804F6940002F003F804F65C1001F0FE
:10320000FFFF04F6242001F0FBFF04F6EC2001F0A0
:10321000F7FF04F6B43001F0F3FF04F67C4001F050
:10322000EFFF04F6FC6001F05DFF04F5825004300E
:10323000BDE8104001F008BF08B5FEF713F908BD5E
:10324000036870B55E6B124B1B6804468DB22BB9D8
:10325000104B114A6C21114820F07AFC1049828DE4
:103260000988914203D80F4B0B4A6D21F3E713F8FD
:1032700012200D4B1B6853F8220003681B6B984704
:10328000291A3346204609B2BDE87040184700BFEE
:10329000B83901208F560208D15602080C5702088F
:1032A000BC39012053570208C039012000F58A506B
:1032B000884208B505D10DF0F3F8BDE80840FFF7E6
:1032C000DBBE08BD70B5036804461B6B1546984706
:1032D0002368294620465B6BBDE870401847000014
:1032E000094A02604FF4807100228184FF21C0E905
:1032F0000122C0E90322C0E90522C0E9072280F8C3
:1033000026108262704700BF7C6902084FF480710A
:1033100081840E4981624FF6FF7181854FF47F01F0
:1033200041630B49016000224FF0FF31C0E90122E7
:10333000C0E90322C0E90522C0E90722C0E9101252
:1033400002630287C2638264704700BF285E02087E
:10335000105F020810B5034B0360044601F026F924
:10336000204610BD306502082A4B2B4A10B5036079
:1033700000F58053044600F582505A64043000F092
:103380000BFD264BC4F8FC3E04F6FC6000F005FE85
:1033900004F67C40FFF7DEFF04F6B430FFF7DAFFF7
:1033A00004F6EC20FFF7D6FF04F62420FFF7D2FF47
:1033B00004F65C10FFF7CEFF04F69400FFF7CAFF97
:1033C00004F2CC70FFF7C6FF04F20470FFF7C2FFEF
:1033D00004F23C60FFF7BEFF04F27450FFF7BAFF3F
:1033E00004F2AC40FFF7B6FF04F57970FFF7B2FFC7
:1033F00004F54770FFF7AEFF04F51570FFF7AAFF5D
:1034000004F5C670FFF7A6FF04F1C400FFF7A2FFA2
:10341000204610BDB85F0208FC63020894640208ED
:1034200010B50446FFF7A0FF204641F224211FF00B
:1034300053FC204610BD10B50446FFF78BFF204615
:10344000C8211FF049FC204610BD00002DE9F04FB7
:103450000446A9B0A24600260EF086FED84BE663CD
:103460004AF8403B04F16C095046FFF739FF26A9A2
:103470004FF6FF734846ADF8983009F06DFB04F144
:10348000980318460693FFF72BFF04F1C403184670
:10349000079301F029FE04F5C6731846089301F05E
:1034A00023FE04F515731846099301F01DFE04F57B
:1034B000477318460A9301F017FE04F5797318460E
:1034C0000B9301F011FE04F2AC4318460C9301F08B
:1034D0000BFE04F2745318460D9301F005FE04F23E
:1034E0003C6318460E9301F0FFFD04F20473184686
:1034F0000F9301F0F9FD04F2CC731846109301F01C
:10350000F3FD04F694031846119301F0EDFD04F663
:103510005C131846129301F0E7FD04F624231846C5
:10352000139301F0E1FD04F6EC231846149301F027
:10353000DBFD04F6B4331846159301F0D5FD04F60F
:103540007C431846169301F0CFFD04F64453184609
:103550001793FFF7C5FE04F5576318461893FFF756
:10356000BFFE04F69C5318461993FFF7B9FE04F604
:10357000C85318461A93FFF7B3FE04F6F4531846DF
:103580001B93FFF7ADFE04F5626318461C93FFF72B
:10359000A7FE04F64C6318461D93FFF7A1FE04F640
:1035A000786318461E93FFF79BFE04F6A463184643
:1035B0001F93FFF795FE04F56D6318462093FFF700
:1035C0008FFE04F6FC631846219301F07DFD04F59F
:1035D000825304331846049301F028FD04F58A53FE
:1035E000184605930AF036FA04F58B531C3304F59C
:1035F0008E5B0BF1080B18460393FFF787FE5846C6
:10360000FFF784FE6F4B04F58057C7E985346E4B96
:10361000C7E987364FF4A073251D4FF07F48324627
:1036200000933146F0235046FFF724FB51462846CD
:10363000C4F8688006F002FC26A94846ADF89860F8
:103640000AF02FFA4FF4A073324600933146F0236C
:103650004846FFF70FFB3146484609F038FA49461D
:1036600028464FF0D20906F0E9FB0698CDF8009005
:103670004B465F220F21FFF7FDFA4FF0FF33C4F8EE
:10368000C0300699284606F0D9FB0798FD22AD21E7
:10369000FFF718FE0799284606F0D0FB0898FD2290
:1036A0007921FFF70FFE0899284606F0C7FB099815
:1036B000FD224521FFF706FE0999284606F0BEFBCC
:1036C0000A98FD221121FFF7FDFD0A99284606F010
:1036D000B5FB0B98C922AD21FFF7F4FD0B992846E5
:1036E00006F0ACFB0C98C9227921FFF7EBFD0C9991
:1036F000284606F0A3FB0D98C9224521FFF7E2FDFD
:103700000D99284606F09AFB0E98C9221121FFF761
:10371000D9FD0E99284606F091FB0F989522AD2110
:10372000FFF7D0FD0F99284606F088FB10989522E8
:103730007921FFF7C7FD1099284606F07FFB119805
:1037400095224521FFF7BEFD1199284606F076FB2C
:10375000129895221121FFF7B5FD1299284606F01F
:103760006DFB13986122AD21FFF7ACFD139928463C
:1037700006F064FB149861227921FFF7A3FD1499E8
:10378000284606F05BFB159861224521FFF79AFD5C
:103790001599284606F052FB169861221121FFF771
:1037A00091FD1699284606F049FB1798CDF8009030
:1037B00002235F220F21FFF75DFA179906E000BF91
:1037C000B85F0208A05F0208AD320008C4F86C8D33
:1037D000284606F033FB1898CDF8009002235F22AC
:1037E0004321FFF747FA1899C4F8988D284606F048
:1037F00025FB1998CDF8009002235F227721FFF76F
:1038000039FA1999C4F8C48D284606F017FB1A989E
:10381000CDF8009002235F22AB21FFF72BFA1A9913
:10382000C4F8F08D284606F009FB1B98CDF80090EF
:1038300002235F22DF21FFF71DFA4FF0020A1B99D6
:10384000C4F81C8E284606F0F9FA4B461C98CDF8B1
:1038500000A05F220F21FFF70DFA1C99C4F8488ED3
:10386000284606F0EBFA4B461D98CDF800A09322AF
:103870000F21FFF7FFF91D99C4F8748E284606F052
:10388000DDFA4B461E98CDF800A0C7220F21FFF7A6
:10389000F1F91E99C4F8A08E284606F0CFFA4B46DF
:1038A0001F98CDF800A0FA220F21FFF7E3F91F9926
:1038B000C4F8CC8E284606F0C1FA4B462098CDF8C5
:1038C00000A040F22F120F21FFF7D4F92099C4F87D
:1038D000F88E284606F0B2FA324621983146FFF7B4
:1038E000F1FC219984F8216F284606F0A7FA3246A8
:1038F00004983146FFF7E6FC049987F8696028468A
:1039000006F09CFA05980F220A21FFF7DBFC012341
:10391000ADF88C3026AB24AA0598ADF890A04FF0F6
:1039200005094FF0060A009323A925ABADF894A032
:10393000ADF8989009F0F9FF4FF00513C7F878310A
:1039400004F590531433C7F868310599284606F0FA
:1039500075FA142203984B21FFF7B4FC4FF0FF33A4
:10396000C7E96F360398184BC7F8AC8126A9A7F8AA
:10397000B061C7F8B8612693ADF89CA009F03EFE8F
:103980000399284606F05AFA322258464B21FFF78F
:1039900099FC4FF0FF33C7E9823626A90A4BC7F8D6
:1039A000F8815846A7F8FC61C7F804622693ADF881
:1039B0009C9009F023FE2846594606F03FFA20461F
:1039C00029B0BDE8F08F00BF285E0208406A70474A
:1039D000806A704770478B88C0690A68DB0A50F8B4
:1039E00023001044704710B50446BAB1107B68B18B
:1039F000537BD27A1B0203F4E0631A43236A03EB7E
:103A000082031A888A4202D193F9020010BD05D8B8
:103A1000013880B204330028F3D1F7E70020F5E73E
:103A200010B52C2104461FF057F9204610BD0000A8
:103A300030B58BB00446BDF860500895BDF85C50B9
:103A400007959DF8505006959DF84C5005959DF8AA
:103A5000485004959DF8445003959DF840500295B8
:103A60009DF83C500195BDF8385000950EF060F976
:103A7000064B2360159BE361169B2362199B6362CF
:103A80001A9BA36220460BB030BD00BFEC5F02085A
:103A900070477047704730B4C26844685510034699
:103AA00004EB6200D20748BF62599B6830BC48BF34
:103AB000D35818470346406830B19A681AB9D86895
:103AC00000F0010070470120704710B51021044636
:103AD0001FF002F9204610BD10B54FF4C271044624
:103AE0001FF0FAF8204610BD00F59670884208B520
:103AF00005D10CF0D5FCBDE80840FFF7CDBA08BDF4
:103B00004FF4807181840D4901600D4981624FF647
:103B1000FF7181854FF47F01002241634FF0FF3137
:103B2000C0E90122C0E90322C0E90522C0E9072259
:103B3000C0E9101202630287C2637047EC68020892
:103B4000285E0208F8B5194B018F1B888B42064688
:103B50002AD9174B1B682BB9164B174A17486C21EB
:103B60001FF0F6FF13F81120154B1B6853F8225075
:103B7000144B186800F00CFD2B6807469B6B284619
:103B800098472B6804469B6C3946284698472B6813
:103B900014FB00F45B6A394628469847A4B2231800
:103BA0001BB2A6F84630F8BD0023FAE7BC39012065
:103BB000B83901208F560208D15602080C57020866
:103BC000C0390120C43901202DE9F04F04468DB0E1
:103BD0000EF0CAFA684B2360684B0025C4E9103523
:103BE0004FF4807304F16C0AA4F86430FF230AA92F
:103BF00004F19809C4E91255C4E91455C4E91655ED
:103C0000E563256684F86630A5664FF6FF73504677
:103C100004F1E008ADF8283008F09EFF4846FFF7B1
:103C20006FFF4046FFF76CFF04F59677544BC4F8DE
:103C3000E030C4F8285138460AF06AF8514BC4E91C
:103C40005D34514BC4E95F354FF4A0732A4604F14B
:103C5000400000932946F0230390FFF70BF80398E8
:103C6000261D4FF07F4B0146C4F868B0304606F081
:103C7000E5F80AA95046ADF8285009F012FF4FF4B4
:103C8000A0732A4600932946F0235046FEF7F2FF20
:103C90002946504608F01BFF5146304606F0CEF844
:103CA0000DF1100A2F2248464621FFF70BFBA4F81E
:103CB000CC5049465046C4F8C8B009F0F7F99AE824
:103CC000070004F1D40383E80700304B0A9309226C
:103CD0000AA94846ADF82C2009F090FC4946304628
:103CE00006F0ACF840468C223821FFF7EBFAD4F806
:103CF000E020A4F8145141465046D2F88420C4F87C
:103D000010B190479AE80700204B0A9304F58E758E
:103D100085E8070008230AA94046ADF82C3009F0D1
:103D20006DFC4146304606F089F83846DF223021E6
:103D3000FFF7C8FA03230AAA09A9ADF824303846C8
:103D40000423ADF8283009F0B6FC0723A4F8643149
:103D50003846FFF7F7FE4FF0FF33C4E95A3304F556
:103D6000BA733046C4F85431394606F067F8204635
:103D70000DB0BDE8F08F00BF6C6002087C690208DE
:103D8000105F020854600208E93A0008285E020841
:103D9000806A7047704770477047704730B4C26898
:103DA00044685510034604EB6200D20748BF6259CD
:103DB0009B6830BC48BFD35818470346406830B1B1
:103DC0009A681AB9D86800F001007047012070475E
:103DD00010B5102104461EF07FFF204610BD10B51F
:103DE000F82104461EF078FF204610BD00F158026D
:103DF0008A4203D10368D3F88C301847704700001B
:103E0000074A02600022C0E90122C0E90322C0E99A
:103E10000522C0E907224FF480728284704700BFF8
:103E2000A06B02082DE9F04F044689B02646002514
:103E3000FFF7E6FF504BA56246F82C3B4FF02609F2
:103E40004A462946304620F0F6F83046FFF7D8FFBC
:103E50004A4BE36204F15808FF2304F1A00784F8F9
:103E600052306565404609F053FF4A4629463846B8
:103E700020F0E1F83846FFF7C3FF414BC4F8A0300B
:103E80004FF6FF73A4F8CC304FF47F03C4F8D4305E
:103E90003C4BDFF8FCA0C4F8D050C4E93A343A4BAC
:103EA000A4F8D850C4E93C354FF0FF39374BA36034
:103EB0002A46C4E93895C4F8DC5029463046C4F88F
:103EC000C8A0FFF7FFF93046F021FDF715FA30469C
:103ED0004FF4A071FDF712FAC82384F8523031462E
:103EE0002046C4F8549005F0A9FF4046CB2230216B
:103EF000FFF7E8F94FF0030B06AA05A90426404690
:103F0000ADF814B0ADF8186009F0D5FB4046A4F840
:103F100090B0FFF717FE04F1E803C4F88030414683
:103F20002046C4E9259905F089FF772238460D21FE
:103F3000FFF7C8F94FF07F43A4F8D4506D46C4F89A
:103F4000D0303946284609F0B1F895E8070004F169
:103F5000DC0383E8070006A93846CDF818A0ADF8C1
:103F60001C6009F04BFB2046394605F067FF2046F0
:103F700009B0BDE8F08F00BFB86002087C69020894
:103F8000EC680208A0600208ED3D0008F000400166
:103F9000285E02087047704770477047704730B41A
:103FA000C26844685510034604EB6200D20748BF5C
:103FB00062599B6830BC48BFD358184703464068D5
:103FC00030B19A681AB9D86800F001007047012032
:103FD000704710B5102104461EF07EFE204610BD2D
:103FE00010B54FF4A07104461EF076FE204610BDB9
:103FF00000F15803994270B504460D4603D1036899
:10400000D3F88C30984704F1A0039D4206D1236871
:104010002046D3F89030BDE87040184770BD0000CE
:104020002DE9F04F044689B0A2460025FFF7E8FECF
:10403000604BA5624AF82C3B26273A462946504653
:104040001FF0F9FF5046FFF7DBFE5B4BE36204F124
:104050005809FF2384F8523004F1A00865654846EA
:1040600004F1E80609F054FE404609F051FE3A46D4
:10407000294630461FF0DFFF3046FFF7C1FE4F4BA9
:10408000C4F8E8304E4BC4F810314FF6FF73A4F873
:1040900014314FF47F03C4F81C314A4BC4F8185153
:1040A000C4E94C34484BA4F820514FF0FF37C4E921
:1040B0004E35464BA3602A46C4E94A75C4F82451DC
:1040C00029465046FFF7FEF85046F021FDF714F957
:1040D00050464FF4A071FDF711F9C82384F852300F
:1040E00051462046676505F0A9FE4846EF2230217B
:1040F000FFF7E8F84FF0040B032305A906AA48468A
:10410000ADF81430ADF818B009F0D5FA0122A4F8D2
:104110009020484604F5987AFFF714FD494620465A
:10412000C4E92577C4F880A005F088FE4046AD229A
:104130003021FFF7C7F8032306AA05A94046ADF8CA
:104140001430ADF818B009F0B6FAA4F8D8504046CB
:10415000FFF7F8FC41462046C4E93777C4F8C8A009
:1041600005F06CFE772230461B21FFF7ABF84FF0CD
:104170007F43A4F81C516D46C4F8183131462846D7
:1041800008F094FF95E8070004F5927383E80700B0
:104190000B4B069306A902233046ADF81C3009F0FC
:1041A0002DFA2046314605F049FE204609B0BDE80B
:1041B000F08F00BF686102087C690208EC680208A1
:1041C000285E020850610208F13F0008F00040013B
:1041D0007047000030B5164D2C6814F001048FB004
:1041E000BFF35B8F20D128461EF078FDE0B13F235E
:1041F0000993104B0893104B104911480A9401225F
:10420000CDE906430423CDE9033214230093CDE91D
:104210000B44CDE901440594FFF70AFC09481FF05F
:10422000B5FC28461EF066FD05480FB030BD00BF46
:10423000E42A0020AC9702082C980208B0940208E7
:10424000E82A0020D14100087047000030B5164D23
:104250002C6814F001048FB0BFF35B8F20D1284687
:104260001EF03CFDE0B13F230993104B0893104B27
:10427000104911480A940122CDE906430423CDE9EF
:1042800003320A230093CDE90B44CDE901440594A0
:10429000FFF7CEFB09481FF079FC28461EF02AFDE7
:1042A00005480FB030BD00BF142B0020B0970208A6
:1042B00030980208C0940208182B002049420008D8
:1042C0007047000030B5164D2C6814F001048FB013
:1042D000BFF35B8F20D128461EF000FDE0B13F23E5
:1042E0000993104B0893104B104911480A9401226E
:1042F000CDE906430423CDE903320F230093CDE932
:104300000B44CDE901440594FFF792FB09481FF0E7
:104310003DFC28461EF0EEFC05480FB030BD00BF46
:10432000442B0020B497020834980208D094020865
:10433000482B0020C14200087047000030B5164DE0
:104340002C6814F001048FB0BFF35B8F21D1284695
:104350001EF0C4FCE8B13F230993104B0893104BA7
:1043600007930123CDE9054304930423CDE90243D8
:1043700014230C4900932122CDE90B440A480A94E6
:104380000194FFF755FB09481FF000FC28461EF07A
:10439000B1FC05480FB030BD742B0020B89702085F
:1043A00038980208E0940208782B0020394300086E
:1043B0007047000030B5174D2C6814F001048FB021
:1043C000BFF35B8F22D128461EF088FCF0B13F235B
:1043D0000993114B0893114B07930123CDE9054332
:1043E00004930423CDE9024328230D4900931222AC
:1043F0002923CDE90B440B480A940194FFF718FBDD
:1044000009481FF0C3FB28461EF074FC05480FB096
:1044100030BD00BFA42B0020049802083C9802087D
:10442000B0960208A82B0020B14300080020704776
:10443000002070470EB403B503AB002153F8042BE2
:1044400001930CF079FF02B05DF804EB03B0704704
:104450000CB407B504AB53F8042B01930CF06CFFBC
:1044600003B05DF804EB02B070470000436C10B578
:10447000044673B3038F2BB9184B194AC521194849
:104480001FF066FBC38E00EB43035B8C0BB30EF097
:1044900078FD238F012B03D8134B144ACB21EEE771
:1044A000E28E531C9BB2092B194688BFA3F10A0167
:1044B00004EB410140F63F10498C814209D10A2B9F
:1044C00004EB420228BF002304EB4303508C5884C2
:1044D00051842046BDE810400EF056BC91570208AA
:1044E0009A570208455802088F5802089D5802083A
:1044F0000EF011BC10B586B002AC84E806001A4676
:104500000AAB05930193099B00932146089B0BF08E
:1045100049FB06B010BD000038B518BB124B13485C
:104520001C681349B4B122682244026062682244C4
:104530000A60A26814440F4B00221A8000F0D0F8E1
:10454000054600F0CBF80C4B1C600C4B1D600C4B6F
:10455000188007E00B4B03600B4B0B600B4B1C6888
:10456000002CE8D138BD00BFE02B0020D82B002064
:10457000D42B0020DC2B0020B8390120C0390120C9
:10458000BC3901206C980208409802080C99020876
:10459000044B1B6853F82100034B1B6803EB4000DE
:1045A000704700BFD42B0020D82B002070477047E5
:1045B00010B5C82104461EF08FFB204610BD000038
:1045C0002DE9F043044689B027460025FFF718FC83
:1045D0003D4BA56247F82C3B4FF026084246294642
:1045E00038461FF028FD3846FFF70AFC374BE362D8
:1045F00004F15806FF2384F8523042462946656587
:1046000030461FF018FD3046FFF7FAFB4FF6FF73F8
:10461000A4F884304FF47F03C4F88C302C4BA3658E
:104620004FF0FF33C4E926354FF03209DFF8A88098
:10463000C4F880804FF03213A3602A46C4F8885033
:10464000A4F89050C4F89450C4F8A0504B462946A2
:104650003846CDF80090FEF70DFB1E4B63653946DA
:10466000204605F0EBFB192300930F224B46294609
:104670003046FEF7FFFA4FF07F43C4F88830A36D51
:10468000A4F88C5002AF31463846D3F884309847AE
:1046900097E8070004F1940383E80700234606A97E
:1046A00023F8A45F3046C4F8A0300A23ADF81C30CC
:1046B000CDF8188008F0A2FF2046314605F0BEFB79
:1046C000204609B0BDE8F083046202087C69020854
:1046D000105F0208DEDEDEFF285E02080B20704756
:1046E00000487047E42B002010B5FFF727FE074C69
:1046F0002060FFF75FFE6060FFF7A8FDA060FFF796
:10470000E1FDE060FFF766FD206110BDE42B0020B5
:1047100010B5002404600C6014601C6010BD70476C
:1047200010B54FF4AE7104461EF0D6FA204610BD07
:1047300010B50446D0F8580100F0F2FB2046BDE861
:1047400010400BF02FBF000010B50446FEF750FCE0
:10475000014B2360204610BD986202087047043860
:104760007047704710B5102104461EF0B5FA204678
:1047700010BDA0F10400F5E7C06800F025B9A0F174
:104780000400FFF7F9BF10B50446806800F05BFA3B
:10479000A368E068D3E91212BDE8104000F014B934
:1047A000C06800F08FB8A0F10400FFF7F9BFC0683F
:1047B00000F0A2B8A0F10400FFF7F9BFC06800F054
:1047C000C3B8A0F10400FFF7F9BFC06800F0D7B884
:1047D000A0F10400FFF7F9BF806800F0FDBB000006
:1047E00000228260024A026030324260C16070473B
:1047F000EC620208806800F026BA7047704710B477
:10480000C26841685410034601EB6200D20748BFFA
:104810000A599B685DF8044B48BFD35818470346B4
:10482000406830B19A681AB9D86800F00100704742
:104830000120704710B5102104461EF04DFA2046A5
:1048400010BD000010B5034B03600446FEF78CFD5D
:10485000204610BD5863020810B50446FFF7F2FF6A
:10486000204641F2E8211EF037FA204610BD000034
:1048700010B50446FEF7EAFD0D4B236004F58053A6
:1048800001220C4983F864220B4AC3F870220022EB
:10489000C3E99A14C3E99D21C3E9A2140748084952
:1048A000C3F87C42C3E9A002C3E9A412204610BDAC
:1048B00058630208406302085D4900088D490008FA
:1048C000A949000870B500F5805600F5915596F895
:1048D000643283F0010386F8643200F5935455F88E
:1048E000040F30B196F8643280F8253003685B69B4
:1048F0009847A542F3D170BD2DE9F84F884600F5E1
:10490000915500274FF0010B08EB870AA9460026B6
:1049100059F8044F44B15AF8261079B984F8251093
:10492000236820465B6998470136042EF0D104378E
:10493000102F05F11005E7D1BDE8F88F84F825B0F8
:10494000204600F0DBFBEBE700F58053012200F589
:10495000825083F8692004300CF018BE10B504466C
:10496000C06BFFF747FF04F5805304F58250002227
:10497000BDE8104083F8692004300CF007BE012325
:1049800080F8213F00F6FC600CF000BE10B5044634
:10499000C06BFFF72FFF002384F8213F04F6FC6073
:1049A000BDE810400CF0F2BD10B50446C06B0368C2
:1049B0001B6A9847002384F8213F04F6FC60BDE899
:1049C00010400CF0E3BD0000F8B50446124F04F5AA
:1049D0008E5500F594500B46164610213A46083580
:1049E00018300FF077F8284608F0E8FD28460CF05C
:1049F000CDFD04F5965004F58B5433463A461C34ED
:104A000010210FF067F8204608F0D8FD2046BDE8D9
:104A1000F8400CF0BBBD00BF6F5902082DE9F04112
:104A2000044604F58055FEF7BBFB04F67C43C5F84D
:104A3000243204F6B433C5F8283204F6EC23C5F862
:104A40002C3204F62423C5F8303204F65C13C5F882
:104A5000343204F69403C5F8383204F2CC73C5F846
:104A60003C3204F20473C5F8403204F23C63C5F8EA
:104A7000443204F27453C5F8483204F2AC43C5F82A
:104A80004C3204F57973C5F8503204F54773C5F814
:104A9000543204F51573C5F8583204F5C673C5F8D9
:104AA0005C3204F1C403C5F8603204F5915604F594
:104AB00093574FF0000856F8040F20B1036880F8B0
:104AC00025805B699847BE42F5D104F593530833BE
:104AD000002604F58250C5F83C31043085F8696041
:104AE0000CF054FD04F59353183384F8216FEB63F5
:104AF00004F5945308332B6404F6FC600CF046FD77
:104B000004F59453183304F59654C5F81032C5F8DB
:104B1000C441BDE8F08170477047704770477047E7
:104B2000704704387047704710B5102104461EF0D6
:104B3000D3F8204610BDA0F10400F5E78368C068F3
:104B4000D96C00F037B8000000228260024A02608F
:104B500018324260C16070478C63020870470000E1
:104B600010B5034B03600446FEF793FF204610BDCB
:104B7000C863020810B50446FFF7F2FF20464FF461
:104B8000D6711EF0A9F8204610BD000010B50446ED
:104B9000FFF71AF8014B2360204610BDC8630208D6
:104BA00010B50446FEF776FF04F5C273C4F8283149
:104BB00010BD000010B504460B46E034064A102133
:104BC00000F5C2700EF086FF204608F0F7FC204684
:104BD000BDE810400CF0DABC6F590208F0B50024B3
:104BE000A1B00546264605EB0412002352F8041F27
:104BF00029B920A901EBC60141E92043013601335F
:104C0000042BF3D10134042CEDD1002E19DD1FF05B
:104C1000AFF820AA90FBF6F303FB160302EBC303E5
:104C200053E920761FF0A4F80A2306EB870690FBD1
:104C3000F3F202FB1300002805EB860518BF0224DF
:104C40006C6021B0F0BD0022012310B500F14001DD
:104C500080F845300446826480F850200346C3E95A
:104C60000122DA6043F8102F8B42F8D12046FFF77B
:104C7000B5FF2046FFF7B2FF206858B10368211D39
:104C8000DB68984720680368D4E912129B69BDE885
:104C90001040184710BD000010B50023C0E91233C2
:104CA000036080F85030054B044618681FF032F856
:104CB0002046FFF7C8FF204610BD00BFFC2B002098
:104CC0002DE9F0470D4688B010222E1F0446002122
:104CD00068461FF0B0F90C353346002253F8041F24
:104CE00029B108A800EB8200013240F8201CAB4239
:104CF000F4D100231F469A4608AA02EB830252F819
:104D0000201C61B303F1010808A800EB88004FEAFA
:104D1000880950F8200C814221D14B0042F8203CF8
:104D2000A26C1344E26CA3649342C8BFE364B1F580
:104D3000806F0CD194F850304BB9206884F845301E
:104D4000012284F8502010B103685B69984709F18B
:104D500020030DEB0309012749F820AC434601333A
:104D6000022BC9DD102200210DEB02001FF063F9B8
:104D700000226B46114653F8040B28B108AC04EB33
:104D80008104013144F8100C0132042AF3D104AB40
:104D900056F8041F53F8042B91421CBF32600127C0
:104DA000AE42F5D1384608B0BDE8F087F8B500232B
:104DB000044680F84430051D00F1440601272946C9
:104DC0002046FFF77DFF08B184F844701035B542E6
:104DD000F5D1F8BDF0B5002385B0054680F8443024
:104DE000044600F14006012723690093E36801931C
:104DF000A36802936946636803932846FFF760FF40
:104E000048B1009B85F844702361019BE360029BDD
:104E1000A360039B63601034A642E5D105B0F0BDEA
:104E2000F0B5002385B0054680F84430044600F113
:104E30001006012754F8043F009323690193236A65
:104E400002936946236B03932846FFF739FF48B165
:104E5000009B85F844702360019B2361029B2362C1
:104E6000039B2363A642E5D105B0F0BDF0B5002356
:104E700085B0054680F84430044600F1100601274D
:104E8000636B0093636A019363690293694654F804
:104E9000043F03932846FFF713FF48B1009B85F8B2
:104EA00044702363019B2362029B2361039B236065
:104EB000A642E5D105B0F0BD30B500F110040346BF
:104EC00000F150052146A1F1100252F8040F30B351
:104ED0008A42FAD102F11001A942F4D103F140054E
:104EE0001A46D2E90110814205D0D168884202D029
:104EF0001069814201D1002011E01032AA42F0D1A4
:104F000059695A688A4203F10403F4D01A6A91423B
:104F1000F1D0196B8A42EED0A342F1D1012030BD0D
:104F20002C4B13B50446186800283AD000231A46C3
:104F30000DF107018DF8073003F017F8002830D184
:104F400094F845306BB39DF80730013B042B07D82C
:104F5000DFE803F003292D3135002046FFF760FF1D
:104F600094F84430EBB12046FFF738FE214651F863
:104F7000040B0368DB68984720680368D4E91212C1
:104F80009B6998472046FFF797FF38B120680023B8
:104F900084F8453010B103681B699847002384F8F2
:104FA000443002B010BD2046FFF760FFD8E720462E
:104FB000FFF7FCFED4E72046FFF70CFFD0E72068A0
:104FC000002384F845300028CAD003685B699847FD
:104FD000C6E700BFB8280020012380F8453070479D
:104FE00010B5034B03600446FEF7D6FE204610BD05
:104FF000FC63020810B50446FFF7F2FF2046FC21CF
:105000001DF06AFE204610BD10B50446D0F8F80029
:1050100050B10368DB68984730B1D4F8F8000368F2
:10502000BDE810409B68184710BD000010B504464D
:10503000FEF7F8FE034B23600023C4F8F830204647
:1050400010BD00BFFC630208FEF7A7BE10B5044602
:10505000D0F8440140B10368DB68984720B1D4F828
:10506000440103689B689847002384F8253023682F
:1050700020465B69BDE810401847000010B5034B9F
:1050800003600446FEF789FF204610BD94640208C1
:1050900010B50446FFF7F2FF20464FF4A4711DF04F
:1050A0001BFE204610BD10B50446D0F8400150B19B
:1050B0000368DB68984730B1D4F840010368BDE865
:1050C00010409B68184710BD10B50446FEF7A8FFB6
:1050D000034B23600023C4E95033204610BD00BFBA
:1050E00094640208FEF75ABF10B50446FFF768FA49
:1050F000014B2360204610BD3065020838B50446D8
:105100000B4669B92F4B80F87D10436504F15800B8
:105110000CF03CFA04F12C00BDE838400CF036BA33
:1051200040293FD027DC08293ED01ADC02293DD097
:1051300004292549254A08BF0A46254918BF4FF0CA
:10514000FF31012004F1A40584F87D006265C4F8F4
:105150008810204A122128460EF0BCFCC4F8A0504A
:10516000D4E7102925D0194A1B49202B08BF0A462D
:105170004FF0FF31E5E7B1F5007F1CD008DC802956
:105180001BD0124A1549B3F5807F08BF0A46EFE7E6
:10519000B1F5806F13D00D4A1149B3F5006F08BF08
:1051A0000A46E5E70F4AE3E70F4AE1E70F4A0849F5
:1051B000C7E70F4ADCE70F4ADAE70F4AD8E70F4A9A
:1051C000D6E700BFB4C1CDFFC8E0EDFF323A3CFFE7
:1051D000656E77FF6F5902085F7CF6FF61CCEDFFCB
:1051E0002EC2EDFF3B5EF6FF79B1F2FFDAE4EEFF8F
:1051F0006395F5FF50C8EDFF72CFEDFF3FC5EDFFA2
:10520000FFF7D5B9F02070474FF4A0707047292000
:10521000FCF79EBF2820FCF79BBF08B5FCF76CFF8E
:10522000CA20FCF795FFC320FCF776FF0820FCF7A7
:1052300073FF5020FCF770FFCF20FCF789FF0020A0
:10524000FCF76AFFC120FCF767FF3020FCF764FF22
:10525000ED20FCF77DFF6420FCF75EFF0320FCF7E8
:105260005BFF1220FCF758FF8120FCF755FFE82078
:10527000FCF76EFF8520FCF74FFF0020FCF74CFF8A
:105280007820FCF749FFCB20FCF762FF3920FCF7C0
:1052900043FF2C20FCF740FF0020FCF73DFF3420AB
:1052A000FCF73AFF0220FCF737FFF720FCF750FF2E
:1052B0002020FCF731FFEA20FCF74AFF0020FCF732
:1052C0002BFF0020FCF728FFB120FCF741FF002056
:1052D000FCF722FF1B20FCF71FFFB620FCF738FF6E
:1052E0000A20FCF719FFA220FCF716FFC020FCF7EC
:1052F0002FFF1020FCF710FFC120FCF729FF102022
:10530000FCF70AFFC520FCF723FF4520FCF704FF4C
:105310001520FCF701FFC720FCF71AFF9020FCF7CF
:10532000FBFE3620FCF714FFC820FCF7F5FEF22048
:10533000FCF70EFF0020FCF7EFFEB020FCF708FFA3
:10534000C220FCF7E9FEB620FCF702FF0A20FCF7BA
:10535000E3FEA720FCF7E0FE2720FCF7DDFE04209B
:10536000FCF7DAFE2A20FCF7F3FE0020FCF7D4FE5F
:105370000020FCF7D1FE0020FCF7CEFEEF20FCF76A
:10538000CBFE2B20FCF7E4FE0020FCF7C5FE00203E
:10539000FCF7C2FE0120FCF7BFFE3F20FCF7BCFE7D
:1053A000F620FCF7D5FE0120FCF7B6FE0020FCF746
:1053B000B3FE0620FCF7B0FE2C20FCF7C9FEC82087
:1053C000FCF714FF2620FCF7C3FE0120FCF7A4FE27
:1053D000E020FCF7BDFE0F20FCF79EFE2920FCF725
:1053E0009BFE2420FCF798FE0C20FCF795FE0E2077
:1053F000FCF792FE0920FCF78FFE4E20FCF78CFE96
:105400007820FCF789FE3C20FCF786FE0920FCF79B
:1054100083FE1320FCF780FE0520FCF77DFE17209D
:10542000FCF77AFE1120FCF777FE0020FCF774FEF3
:10543000E120FCF78DFE0020FCF76EFE1620FCF745
:105440006BFE1B20FCF768FE0420FCF765FE1120B4
:10545000FCF762FE0720FCF75FFE3120FCF75CFEE4
:105460003320FCF759FE4220FCF756FE0520FCF7DE
:1054700053FE0C20FCF750FE0A20FCF74DFE2820BE
:10548000FCF74AFE2F20FCF747FE0F20FCF744FEF6
:105490001120FCF75DFEC820FCF7A8FE2920FCF7D0
:1054A00057FEBDE808402C20FCF752BE08B5FCF7BB
:1054B00023FE0321D320FCF767FE80B208BD10B5A0
:1054C000C4B2022203212046FCF7CCFD0A20FCF7DF
:1054D00011FE204600220321FCF7C4FDBDE8104068
:1054E0000220FCF707BE38B50446E4B2FCF7B8FD6D
:1054F00000212046FCF7CEFD012105462046FCF7A1
:10550000C9FD40EA052080B238BD10B5C4B24021C3
:105510002046FCF7BFFD030607D54C212046FCF7CB
:10552000B9FD003818BF012010BD01224B212046D3
:10553000FCF798FD204600224B21FCF793FD00204C
:10554000F2E773B50423C4B20E461546D7210DEB1E
:1055500003022046FCF7B8FD019B1BBA1A0DC3F3EA
:105560000B23328020462B8001224B21FCF77AFD51
:1055700000224B212046FCF775FD02B070BD0000F3
:1055800010B50A4A1378984204460DD051788842E3
:105590000AD00BB141B90123D454FCF761FD204678
:1055A000BDE81040FFF78BBF10BD00BFF82B0020F7
:1055B00010B5C4B209212046FCF76CFD40F0010291
:1055C000D2B220460921BDE81040FCF74BBD10B512
:1055D000C4B209212046FCF75DFD092100F0FE025E
:1055E0002046BDE81040FCF73DBD38B5C4B20D46BD
:1055F00020460A21FCF74EFD40EA0502D2B22046C1
:105600000A21BDE83840FCF72DBD10B50446FCF773
:1056100028FD20461F21FFF7E8FF2046BDE8104087
:10562000FFF7C6BF38B5C4B20D4620460A21FCF7C5
:1056300031FD20EA0502D2B220460A21BDE83840F9
:10564000FCF710BD10B50446FFF7C1FF20461F212F
:10565000BDE81040FFF7E6BF10B5C0B20C460B2105
:10566000FCF718FD204010BD1F21FFF7F5BF0A46CB
:10567000C0B20B21FCF7F6BC1F21FFF7F8BF38B50D
:10568000C4B20D4620461721FCF704FD20EA0502AE
:10569000D2B220461721BDE83840FCF7E3BC70B514
:1056A000C4B2064604212046FCF7F4FC042100F0B5
:1056B000FB0205462046FCF7D5FC3046F021FFF7FB
:1056C000DEFF05F0F80220460421FCF7CBFC49225E
:1056D00020212046FCF7C6FC0220FCF70BFD2046EB
:1056E00001222121FCF7BEFC20469A224121FCF731
:1056F000B9FC204601224A21FCF7B4FC20460122D5
:105700004B21FCF7AFFC204600224B21FCF7AAFC02
:10571000204601225621FCF7A5FC204601225821F3
:10572000FCF7A0FC204601224021FCF79BFC204610
:10573000FF220B21FCF796FCBDE870400220FCF72D
:10574000D9BC0000054BD3F8882042F47002C3F89E
:1057500088204FF000629A60704700BF00ED00E0C3
:1057600008B50B4B1A6842F400721A601A6842F4CA
:1057700080621A601A6842F480721A60032000F096
:105780002FF80020FCF774FFFCF73EFD002008BD59
:10579000003C0240034A044B11681B780B44136021
:1057A000704700BFFC2B002078000020014B1868D8
:1057B000704700BFFC2B002038B50446FFF7F6FF0A
:1057C000631C1CBF054B1B78054618BFE418FFF788
:1057D000EDFF431BA342FAD338BD00BF7800002081
:1057E0000749CA6822F4E0620302120403F4E0638A
:1057F000120C134343F0BF6343F40033CB60704794
:1058000000ED00E0164B30B5DC68C4F30224C4F1AF
:105810000703251D042B28BF0423062D4FF0FF3559
:105820008CBF033C002405FA03F321EA0303A540DF
:1058300022EA0502A340002843EA0203ACBF00F1BC
:105840006040084A4FEA0313B8BF00F00F00DBB214
:10585000AABF00F56140135480F8003330BD00BF8B
:1058600000ED00E014ED00E0002807DB044A4109E8
:10587000012300F01F00834042F82130704700BF31
:1058800000E100E010B5044650B1437903F0FF0297
:1058900013B90271FCF7D8FC01236371002010BD1D
:1058A0000120FCE710B5044620B390F8393003F02E
:1058B000FF021BB980F83820FCF7DEFC022384F8D5
:1058C0003930236861681A6822F440320A431A604A
:1058D0005A6BA16822F007020A435A631A6CE16806
:1058E0006FF30D020A431A6400200123E06384F879
:1058F000393010BD0120FCE770477047036870B570
:105900005E681D68F207044614D5E90512D51A68C9
:1059100022F480721A60C26B42F00102C26301225B
:105920009A60042380F83930002380F838304369C6
:1059300003B19847B20616D5AB0414D523681A688C
:1059400022F400521A6020229A60E36B43F00203B3
:10595000E363042384F83930002384F83830636922
:105960000BB120469847300716D5290514D5236872
:105970001A6822F400621A6008229A60E36B43F00E
:105980000403E363042384F83930002384F83830B7
:1059900063690BB12046984772070BD56B0509D593
:1059A00023681A6822F480621A6004229A602046F2
:1059B000FFF7A2FFB00714D5A90512D523681A680E
:1059C00022F400721A6002229A60E36BE3630123FF
:1059D00084F83930002384F8383023690BB120462D
:1059E0009847F20613D5EB0411D523681A6822F400
:1059F00080521A6010229A60E36BE363012384F8FB
:105A00003930002384F838302046FFF776FF70BD28
:105A1000F0B590F83820012A03464FF002002BD051
:105A2000012283F8382083F8390003EB0112D2E910
:105A30000740556A174F44EA0040093C012C9CBFBF
:105A400005F07F4210434FEA01161A6888BF40EA0A
:105A5000056091B9516A394001435162012C99693D
:105A6000916103D8596A21F07F419162012200209F
:105A700083F8392083F83800F0BDD16939400143FB
:105A8000D1619919012C896911619CBF25F07F456D
:105A90001562EBE7F0FFFC002DE9F74FDFF8BC9152
:105AA0006C4A00230D6801249C4004EA0506AC43BF
:105AB00040F0B7804D68032705F003044FEA430820
:105AC00007FA08FC671E012F6FEA0C0C34D88768B0
:105AD00007EA0C0ECF6807FA08F747EA0E07876057
